:020000040000FA
:1000000080100020650100006D0100006F010000FC
:1000100000000000000000000000000000000000E0
:10002000000000000000000000000000710100005E
:1000300000000000000000007301000075010000D6
:1000400077010000770100007701000077010000D0
:1000500077010000770100007701000077010000C0
:100060007701000077010000E5140000770100002F
:1000700077010000770100007701000077010000A0
:100080007701000077010000770100007701000090
:100090007701000077010000770100007701000080
:1000A0007701000077010000770100007701000070
:1000B00077010000770100003D0F0000770100008C
:1000C00000F002F800F03EF80CA030C80838241800
:1000D0002D18A246671EAB4654465D46AC4201D180
:1000E00000F030F87E460F3E0FCCB6460126334274
:1000F00000D0FB1AA246AB4633431847FC1400005D
:100100001C150000103A02D378C878C1FAD85207FB
:1001100001D330C830C101D504680C6070470000BD
:100120000023002400250026103A01D378C1FBD813
:10013000520700D330C100D50B6070471FB51FBDFB
:1001400010B510BD00F08FF91146FFF7F7FF01F071
:1001500041FA00F0A7F903B4FFF7F2FF03BC00F087
:10016000ADF900000748804707480047FEE7FEE773
:10017000FEE7FEE7FEE7FEE704480549054A064BB1
:100180007047000099130000C100000080000020AB
:10019000801000208008002080080020FEB5054661
:1001A00010460C46184373D0AE468C460020AD1A5C
:1001B00001469C4167D36646002701243D46B61A96
:1001C0009D4102D313463A462124654676462F04C4
:1001D000360C3E432D0CB61A9D4104D3150C1B045E
:1001E0002B4312041034654676462F06360A3E43EA
:1001F0002D0AB61A9D4104D3150E1B022B43120281
:100200000834654676462F0736093E432D09B61A4F
:100210009D4104D3150F1B012B431201241D65467C
:100220007646AF07B6083E43AD08B61A9D4104D3E3
:10023000950F9B002B439200A41C65467646EF0762
:1002400076083E436D08B61A9D411AD392185B4159
:10025000641C16E00018764665464941B71A9D4170
:100260000191009009D36046B11A98418E468446A8
:10027000009801990025401C6941DD0752082A4376
:100280005B08641EE6D57246634603B0F0BDFFE727
:1002900000200146C046C0462A462346F5E730B551
:1002A00005460B462A461C781078521C5B1C002819
:1002B00001D0A042F7D0002C03D0002802D06D1C42
:1002C000EFE7284630BD01E004C0091F0429FBD236
:1002D0008B0701D50280801CC90700D002707047CF
:1002E00000290BD0C30702D00270401C491E02290E
:1002F00004D3830702D50280801C891EE3E7002215
:10030000EEE70022DFE7002203098B422CD3030A29
:100310008B4211D300239C464EE003460B433CD452
:10032000002243088B4231D303098B421CD3030ABA
:100330008B4201D394463FE0C3098B4201D3CB01EA
:10034000C01A524183098B4201D38B01C01A52411A
:1003500043098B4201D34B01C01A524103098B421E
:1003600001D30B01C01A5241C3088B4201D3CB0009
:10037000C01A524183088B4201D38B00C01A5241EC
:1003800043088B4201D34B00C01A5241411A00D29C
:1003900001465241104670475DE0CA0F00D0494205
:1003A000031000D34042534000229C4603098B4275
:1003B0002DD3030A8B4212D3FC22890112BA030AFD
:1003C0008B420CD3890192118B4208D3890192117F
:1003D0008B4204D389013AD0921100E08909C30904
:1003E0008B4201D3CB01C01A524183098B4201D306
:1003F0008B01C01A524143098B4201D34B01C01AF1
:10040000524103098B4201D30B01C01A5241C30868
:100410008B4201D3CB00C01A524183088B4201D3D7
:100420008B00C01A5241D9D243088B4201D34B00F2
:10043000C01A5241411A00D20146634652415B1034
:10044000104601D34042002B00D549427047634615
:100450005B1000D3404201B50020C046C04602BD3B
:10046000704770477047754600F024F8AE460500A7
:1004700069465346C008C000854618B020B5FFF74E
:100480007BFE60BC00274908B6460026C0C5C0C533
:10049000C0C5C0C5C0C5C0C5C0C5C0C5403D490078
:1004A0008D46704710B50446C046C0462046FFF74B
:1004B00052FE10BD004870471C0000200149182062
:1004C000ABBEFEE7260002007047000000B585B015
:1004D00014216846FFF715FF2020009001200190AD
:1004E00000200290039004906946284800F01AF911
:1004F0004020009001200190002002900390049081
:100500006946224800F00EF90121C9031F4800F096
:10051000E1F90120C00300900020019002900390B7
:1005200004906946194800F0FDF80120C0071849F9
:10053000C96A0143164AD16200BF03220821154847
:1005400000F0DFF9C020134909688202914301439A
:10055000104A116000BF082011468968014391606C
:1005600000BF012208210B4800F0CBF908210948FF
:1005700000F0BCF81E2000F047FD02211E2000F014
:100580005BFD1E2000F04CFD05B000BD000C0040DE
:1005900040020040000D004010B52021074800F047
:1005A00099F94021054800F095F92021034800F011
:1005B00096F94021014800F092F910BD000C00406E
:1005C00000B58BB001204003069002200790002068
:1005D000089009900A9006A9204800F0A3F801208D
:1005E00080030690022007900020089009900A904E
:1005F00006A91A4800F096F8002000904B20C00190
:100600000190402002900020039004900320059068
:100610006946134800F032FB0A2000F0F5FC022185
:100620000A2000F009FD0A2000F0FAFC00200D4924
:1006300008700D4908700D4908700D4908700D4982
:1006400008700D4908600D4908600D4908600821CF
:100650000C48FFF754FE0BB000BD0000000C00403A
:10066000001C0140000000200100002002000020CA
:1006700003000020040000201000002014000020CF
:10068000180000200500002010B5044603E07D207E
:10069000C00000F005F82046641E0028F7D110BD08
:1006A00070B5064600F09CFA314600F06DFF044636
:1006B0000C4A0023FFF772FD064601200006864221
:1006C00000D900E030460646701E07494861002008
:1006D000886100BF04480069C003C00F0028F9D03A
:1006E00070BD000040420F0000E000E08AB2C2602E
:1006F0007047826A8BB29A438262704702688BB2FB
:100700009A430260704782688BB29A438260704756
:1007100042688BB29A4342607047026A8BB29A4336
:1007200002627047F8B506460C460027002500BF58
:10073000654886420BD064484030864207D0624804
:100740008030864203D06048C030864201D101200B
:1007500000E00020002801D100BFFEE700BF00BF7D
:100760002068002805D959492068884201D801200D
:1007700000E00020002801D100BFFEE700BF00BF5D
:100780006068032808D06068002805D060680128E8
:1007900002D06068022801D1012000E0002000287A
:1007A00001D100BFFEE700BF00BFA068012802D052
:1007B000A068002801D1012000E00020002801D11C
:1007C00000BFFEE700BF00BFE068002802D0E0687D
:1007D000012801D1012000E00020002801D100BF44
:1007E000FEE700BF80203A49896A0143384A916296
:1007F00000BF62E00121B940206808400546002D95
:100800005AD06068032812D129463046FFF776FF98
:1008100029463046FFF77CFF29463046FFF773FF35
:1008200000BFB06AA9B20843B06200BF2EE02946FB
:100830003046FFF75EFF6068002806D100BF3068D1
:10084000A9B20843306000BF03E029463046FFF7F5
:1008500055FFA068002804D129463046FFF753FF12
:1008600006E000BFB068A9B20843B06000BF00BF97
:10087000E068002806D000BF7068A9B20843706025
:1008800000BF03E029463046FFF742FF60680228B8
:100890000DD12069012806D100BF306AA9B20843F2
:1008A000306200BF03E029463046FFF736FF294695
:1008B0003046626800F018F87F1C2068F840002875
:1008C00098D10120F8BD0000000C0040FFFF00009F
:1008D0000002004082698BB21A438261704742690C
:1008E0008BB21A434261704730B5C3680C464C4323
:1008F00065006419A3430C464C4354432343C3602F
:1009000030BD30B543680C464C4365006419A343C1
:100910000C464C4354432343436030BD0249C96AEB
:100920000143014AD1627047400200400249096B0D
:100930000143014A116370470002004010B50024D2
:1009400000BF1B48C06807210902084005221202A7
:10095000811A904218D006DC00280DD001218902AE
:10096000401A1DD10CE0C81FF938002810D0FF38FC
:100970000138002814D10FE000F032F9044613E0EA
:1009800000F02EF944080FE000F02AF984080BE08B
:1009900000F026F9C40807E000F022F9040903E09A
:1009A00000F01EF9044600BF00BF204610BD000045
:1009B0000002004010B5002400BF1B48C06807219A
:1009C0000904084005221204811A904218D006DC5E
:1009D00000280DD001218904401A1DD10CE001200E
:1009E0000004081A10D001210904401A14D10FE0A4
:1009F000FFF7A4FF044613E0FFF7A0FF44080FE051
:100A0000FFF79CFF84080BE0FFF798FFC40807E09E
:100A1000FFF794FF040903E0FFF790FF044600BFCF
:100A200000BF204610BD00000002004010B50024A9
:100A300000BF1B48C0680721C90408400522D20432
:100A4000811A904218D006DC00280DD001214905FA
:100A5000401A1DD10CE00120C004081A10D0012159
:100A6000C904401A14D10FE0FFF768FF044613E0F1
:100A7000FFF764FF44080FE0FFF760FF84080BE016
:100A8000FFF75CFFC40807E0FFF758FF040903E025
:100A9000FFF754FF044600BF00BF204610BD000012
:100AA0000002004070B50024002500BF2548806981
:100AB00002210840002802D0022806D103E000F0FD
:100AC0006DF8044605E0204C03E000F067F80446AA
:100AD00000BF00BF00BF1B488069702108400107AC
:100AE000090F00291FD10011030000F065FD080562
:100AF00006080A0C12141A1C16E0640814E0A40874
:100B000012E0E40810E00C212046FFF7FCFB04464D
:100B10000AE0240908E018212046FFF7F4FB044608
:100B200002E0640900E000BF00BF00BF0548806923
:100B30007F2109040840000C451C204668430446F8
:100B4000204670BD0002004000127A00002000BF65
:100B50000D49496A032212041140002908D00122DC
:100B60001204891A06D0891A06D0891A08D105E01C
:100B7000064807E0064805E0064803E0064801E0AD
:100B8000024800BF00BF70474002004000093D001E
:100B900040420F0020A1070090D00300002000BFBA
:100BA0000B4909690F2212041140002906D00122C5
:100BB0001204891A04D0891A06D103E0054805E019
:100BC000054803E0054801E0024800BF00BF704748
:100BD0000002004000127A000024F40000366E018A
:100BE00010B5002400BF1548C0684007400F03003F
:100BF00000F0E2FC0805090B1D0F131A161DFFF784
:100C0000CDFF044617E00E4C15E0FFF74BFF0446FE
:100C100011E0FFF79BFF04460DE00124E4030AE026
:100C200000F010F8044606E07D24240203E0FFF7FC
:100C3000B5FF044600BF00BF204610BD00020040C3
:100C400000127A0000BF0548C0680821084000284B
:100C500001D1034870470348FCE700000002004050
:100C6000006CDC02008793030168490849000160B9
:100C7000704701680122114301607047F8B50546CD
:100C80000C46002700200090002600BFA0488542A7
:100C900008D0A048854205D09F48854202D09F4891
:100CA000854201D1012000E00020002801D100BFD1
:100CB000FEE700BF00BF2068002814D02068042889
:100CC00011D0206808280ED020680C280BD020688E
:100CD000002808D02068012805D02068022802D00A
:100CE0002068032801D1012000E00020002801D164
:100CF00000BFFEE700BF00BFA068002808D0A068C2
:100D0000402805D0A068802802D0A068C02801D162
:100D1000012000E00020002801D100BFFEE700BF55
:100D200000BF2069002805D02069102802D0206962
:100D3000202801D1012000E00020002801D100BFBF
:100D4000FEE700BF00BFE068002804D0FF210131AA
:100D5000E068884201D1012000E00020002801D194
:100D600000BFFEE700BF00BF6069002808D06069CF
:100D7000022805D06069012802D06069032801D1EA
:100D8000012000E00020002801D100BFFEE700BFE5
:100D90005F48854228D120686149C96A890889006D
:100DA00001435F4AD16200BF2068002806D00128B5
:100DB00008D002280AD0032810D10BE0FFF7FAFD73
:100DC00000900BE0FFF7EAFE009007E0FFF708FF56
:100DD000009003E0FFF7BAFE009000BF00BF61681B
:100DE0000098FFF790FA461E4A48854228D12068AD
:100DF0004B49C96A0C2291430143494AD16200BF61
:100E00002068002806D0042808D008280AD00C281A
:100E100010D10BE0FFF7CEFD00900BE0FFF7BEFE18
:100E2000009007E0FFF7DCFE009003E0FFF78EFE86
:100E3000009000BF00BF61680098FFF764FA461E8B
:100E40003348854206D18015FFF770FDA815FFF7DE
:100E500065FD26E02F48854206D14015FFF766FD67
:100E60006815FFF75BFD1CE02B4885420BD1801411
:100E7000FFF75CFDFFF7DAFD009061680098FFF76F
:100E800042FA461E0DE0254885420AD14014FFF77C
:100E90004DFDFFF7CBFD009061680098FFF733FA36
:100EA000461E207DC007C00F002806D000BF28685E
:100EB00001210843286000BF00BF0221606908408B
:100EC000002805D000BF28680843286000BF00BF85
:100ED00000BFA869000C00043043A86100BFE068AF
:100EE0002968FF22013291430143296000BFA068B5
:100EF0002968C02291430143296000BF2069296805
:100F0000302291430143296000BF01273846F8BDD4
:100F1000001C01400020014000A0014000A401404D
:100F20004002004001468868022210404008704795
:100F30004269120A12020A434261704700B585B045
:100F400008202C49C9680140814201D1012100E0FB
:100F5000002100294CD008212648FFF7C7FB0320B9
:100F60004003009000200190029003900490694695
:100F70002148FFF7D7FB2148FFF776FE204800788D
:100F8000002810D120211C48FFF7A4FC7D20C000C0
:100F9000FFF77AFB08211748FFF7A8FB2021164826
:100FA000FFF79DFC1BE016480078012817D120218F
:100FB0001148FFF78FFC40210F48FFF78BFC7D2085
:100FC000C000FFF761FB08210A48FFF78FFB2021D3
:100FD0000948FFF784FC40210748FFF780FC022006
:100FE000019069460448FFF79DFB0448FFF741FE66
:100FF00005B000BD000D0040000C0040001C014089
:101000000100002070477047002805DBC206D20EA1
:1010100001219140014A11607047000080E100E029
:10102000002805DBC206D20E01219140014A116061
:101030007047000000E100E010B5002819DB1A4AF3
:1010400003231B02D21883089B00D2588307DC0EAF
:10105000FF23A3409A438B071B0E8407E40EA34093
:101060001A43114B032424021B198408A4001A51AB
:1010700018E00E4A03071B0F083B9B089B00D25841
:101080008307DC0EFF23A3409A438B071B0E8407C4
:10109000E40EA3401A43054B0407240F083CA408A0
:1010A000A4001A5110BD000000E100E01CED00E0BA
:1010B00000B585B01E20FFF7A7FF03204003009076
:1010C0000020019002900390049069462648FFF7A3
:1010D00029FB2648FFF7C8FD25480078002815D1D0
:1010E00020212148FFF7F6FB7D20C000FFF7CCFA56
:1010F0000220019069461C48FFF714FB1B48FFF7CC
:10110000B8FD20211848FFF7EAFB20E018480078D6
:1011100001281CD120211448FFF7DCFB4021124894
:10112000FFF7D8FB7D20C000FFF7AEFA0220019048
:1011300069460D48FFF7F6FA0C48FFF79AFD2021A3
:101140000948FFF7CCFB40210748FFF7C8FB0821FF
:101150000848FFF7CBFA02211E20FFF76DFF1E2083
:10116000FFF75EFF05B000BD000C0040001C014011
:1011700001000020000D00405424002500BF7448E9
:101180004068FF21013108437149486000BFDDE03C
:101190000120FFF779FA6F4800680128F7D16E48FF
:1011A00000787B280ED16C48407804280AD16A4820
:1011B0008078802806D16848C078002802D1FFF7DF
:1011C00077FFA3E065A16448FFF769F8002814D011
:1011D00064480078012804D10020634908706149FF
:1011E00008706248007880088000C01C5F49087061
:1011F00048215748FFF79CFE88E05DA15648FFF75D
:101200004EF8002814D057480078002804D1012057
:101210005549087053490870544800788008800088
:10122000401C524908704C214948FFF781FE6DE08F
:1012300050A14948FFF733F8002808D000204A4958
:101240000870012554214248FFF772FE5EE04BA171
:101250004148FFF724F8002808D0022042490870CE
:10126000012557213A48FFF763FE4FE045A13A4870
:10127000FFF715F8002808D001203B490870012528
:1012800050213348FFF754FE40E03F4800680428EF
:101290000CD131484078732808D12F4880783349E1
:1012A00008702D48C078394908702FE0364800682A
:1012B000022814D128484078672810D12B4801789B
:1012C0002348FFF735FE00BF2148FFF72BFE01281A
:1012D000FAD12E4801781E48FFF72AFE16E02CA10D
:1012E0001D48FEF7DCFF002810D01F4800780228B8
:1012F00001D1572406E01C480078012801D1502470
:1013000000E0542421461248FFF712FE012D18D1A7
:101310001448007800280AD114480078F021884346
:10132000A03012490870CB201849087008E00F4817
:101330000078F02188430D49087000201349087097
:1013400000250020104908600249086020E70000DD
:10135000001C014014000020050000206869676837
:101360000000000001000020000000200300002019
:101370006C6F770074696D6572000000776966694B
:1013800000000000706972001800002004000020B6
:1013900067657473726300000021454A91610521FD
:1013A0004906D1601146896A80221143404A916200
:1013B0004049C9680F22920411433E4AD16000217E
:1013C0003B4A51621146496A052212021143384ACA
:1013D00051627D20000100E0401E0028FCD1AA21BE
:1013E000334A91631146C96892041143304AD1606F
:1013F00031490968012211432F4A11601146496899
:10140000FE2211402C4A51600321D20451602B4925
:101410000968090C294A1288D24392B2914202D13A
:101420002649096800E030214906490E204A5161E9
:1014300022494968090C214A9288D24392B29142CA
:1014400002D11E49496800E041214906490E184A67
:101450004032916219494039096A090C174A403AE9
:10146000128CD24392B2914203D114494039096A95
:1014700000E08021C9B20E4A11620E494968FF227C
:10148000813211430B4A51600949C96A1022114344
:10149000074AD1620A49C96B12151143084AD16340
:1014A0000349C96A10229143014AD1627047000082
:1014B00000020040C00C004000A8014040FBFF1F9C
:1014C00000040040064800690421084304490861FB
:1014D000084600690121084301490861704700007E
:1014E00000E000E000BF21484068FF2101310840D2
:1014F000000A002838D000BF1C4880680840000A55
:10150000002831D000BF19480069C0B21849194AF3
:101510001268885417480068002810D108460078DF
:101520007B2803D104201449086008E010480078A3
:10153000082800DD70470E4800780F4908600D4804
:101540000068401C0B490860084600680A490968A1
:10155000884206DB0020074908600120074908602F
:1015600002E000200549086000BFE3E7001C0140DD
:1015700005000020100000201800002014000020AA
:1015800010B5FFF79FFF10BDF8B582B28BB2040C07
:101590000D0C10465843002126465E43370C360496
:1015A0008019794116466E43370C3604801979410B
:1015B00026466E438919F8BD30B47446641E2578FA
:1015C000641CAB4204D3635D5B00E31830BC184776
:1015D0001D46F8E710B5FFF715FDFFF714FDFFF7FF
:1015E000CFFFFEF773FFFEF7EBFFFEF7D5FFFFF728
:1015F000C3FD002010BD00001816000000000020F0
:101600001C00000004010000341600001C00002033
:101610006410000020010000000000000000000035
:1016200000000000000000000000000000000000BA
:0416300000000000B6
:04000005000000C136
:00000001FF
